:020000040800F2
:1000000000C0002005280008DD240008E3240008C3
:10001000E9240008EF240008F5240008000000008F
:10002000000000000000000000000000FB240008A9
:100030000725000800000000132500081F25000800
:100040004D2800084D2800084D2800084D280008BC
:100050004D2800084D2800084D2800084D280008AC
:100060004D2800084D2800084D2800084D2800089C
:100070004D2800084D2800082D2500084D280008AF
:100080004D2800084D2800084D2800084D2800087C
:10009000412500084D2800084D2800084D2800087B
:1000A0004D2800084D2800084D2800084D2800085C
:1000B0004D2800084D2800084D2800084D2800084C
:1000C0004D2800084D2800084D2800084D2800083C
:1000D0004D280008552500084D2800084D28000827
:1000E0004D2800084D2800084D2800084D2800081C
:1000F0004D2800084D2800084D2800084D2800080C
:100100004D2800084D2800084D2800084D280008FB
:100110004D2800084D2800084D2800084D280008EB
:100120004D2800084D2800084D2800084D280008DB
:1001300000000000000000000000000000000000BF
:1001400000000000000000000000000000000000AF
:10015000000000000000000000000000000000009F
:10016000000000000000000000000000000000008F
:10017000000000000000000000000000000000007F
:10018000000000000000000000000000000000006F
:10019000000000000000000000000000000000005F
:1001A000000000000000000000000000000000004F
:1001B000000000000000000000000000000000003F
:1001C000000000000000000000000000000000002F
:1001D000000000000000000000000000000000001F
:0401E0005FF8E0F1F3
:1001E80010B5054C237833B9044B13B10448AFF369
:1001F80000800123237010BD700000200000000063
:10020800AC66000808B5034B1BB103490348AFF3BC
:10021800008008BD0000000074000020AC660008E3
:1002280081F0004102E000BF83F0004330B54FEA9F
:1002380041044FEA430594EA050F08BF90EA020F0C
:100248001FBF54EA000C55EA020C7FEA645C7FEA9F
:10025800655C00F0E2804FEA5454D4EB5555B8BFC2
:100268006D420CDD2C4480EA020281EA030382EA33
:10027800000083EA010180EA020281EA0303362DC5
:1002880088BF30BD11F0004F4FEA01314FF4801C98
:100298004CEA113102D0404261EB410113F0004FAA
:1002A8004FEA03334CEA133302D0524263EB430361
:1002B80094EA050F00F0A780A4F10104D5F1200EFF
:1002C8000DDB02FA0EFC22FA05F2801841F100015A
:1002D80003FA0EF2801843FA05F359410EE0A5F12E
:1002E80020050EF1200E012A03FA0EFC28BF4CF05F
:1002F800020C43FA05F3C01851EBE37101F0004515
:1003080007D54FF0000EDCF1000C7EEB00006EEB21
:100318000101B1F5801F1BD3B1F5001F0CD34908AB
:100328005FEA30004FEA3C0C04F101044FEA445202
:1003380012F5800F80F09A80BCF1004F08BF5FEA89
:10034800500C50F1000041EB045141EA050130BD69
:100358005FEA4C0C404141EB0101013C28BFB1F57B
:10036800801FE9D291F0000F04BF01460020B1FAC6
:1003780081F308BF2033A3F10B03B3F120020CDA99
:100388000C3208DD02F1140CC2F10C0201FA0CF077
:1003980021FA02F10CE002F11402D8BFC2F1200CDC
:1003A80001FA02F120FA0CFCDCBF41EA0C01904092
:1003B800E41AA2BF01EB0451294330BD6FEA0404DB
:1003C8001F3C1CDA0C340EDC04F11404C4F12002C6
:1003D80020FA04F001FA02F340EA030021FA04F3D8
:1003E80045EA030130BDC4F10C04C4F1200220FA2F
:1003F80002F001FA04F340EA0300294630BD21FA6D
:1004080004F0294630BD94F0000F83F4801306BF32
:1004180081F480110134013D4EE77FEA645C18BF26
:100428007FEA655C29D094EA050F08BF90EA020FBD
:1004380005D054EA000C04BF1946104630BD91EAB5
:10044800030F1EBF0021002030BD5FEA545C05D1B8
:100458004000494128BF41F0004130BD14F58004F7
:100468003CBF01F5801130BD01F0004545F0FE416B
:1004780041F470014FF0000030BD7FEA645C1ABFA0
:10048800194610467FEA655C1CBF0B46024650EAD7
:10049800013406BF52EA033591EA030F41F4002103
:1004A80030BD00BF90F0000F04BF0021704730B589
:1004B8004FF4806404F132044FF000054FF000015E
:1004C80050E700BF90F0000F04BF0021704730B51F
:1004D8004FF4806404F1320410F0004548BF4042F4
:1004E8004FF000013EE700BF42004FEAE2014FEA49
:1004F80031014FEA02701FBF12F07F4393F07F4F24
:1005080081F06051704732F07F4208BF704793F026
:100518007F4F04BF41F40021704730B54FF4607439
:1005280001F0004521F000411CE700BF50EA01023C
:1005380008BF704730B54FF000050AE050EA0102E5
:1005480008BF704730B511F0004502D5404261EB55
:1005580041014FF4806404F132045FEA915C3FF496
:10056800D8AE4FF003025FEADC0C18BF03325FEA33
:10057800DC0C18BF033202EBDC02C2F1200300FAE4
:1005880003FC20FA02F001FA03FE40EA0E0021FA09
:1005980002F11444BDE600BF70B54FF0FF0C4CF4F7
:1005A800E06C1CEA11541DBF1CEA135594EA0C0FA9
:1005B80095EA0C0F00F0DEF82C4481EA030621EAE4
:1005C8004C5123EA4C5350EA013518BF52EA03351F
:1005D80041F4801143F4801338D0A0FB02CE4FF0D1
:1005E8000005E1FB02E506F00042E0FB03E54FF001
:1005F8000006E1FB03569CF0000F18BF4EF0010EF9
:10060800A4F1FF04B6F5007F64F5407404D25FEAF4
:100618004E0E6D4146EB060642EAC62141EA5551A7
:100628004FEAC52040EA5E504FEACE2EB4F1FD0CE9
:1006380088BFBCF5E06F1ED8BEF1004F08BF5FEA67
:10064800500E50F1000041EB045170BD06F0004619
:1006580046EA010140EA020081EA0301B4EB5C04C6
:10066800C2BFD4EB0C0541EA045170BD41F48011BE
:100678004FF0000E013C00F3AB8014F1360FDEBFE3
:10068800002001F0004170BDC4F10004203C35DABF
:100698000C341BDC04F11404C4F1200500FA05F342
:1006A80020FA04F001FA05F240EA020001F00042E3
:1006B80021F0004110EBD37021FA04F642EB060159
:1006C8005EEA430E08BF20EAD37070BDC4F10C0483
:1006D800C4F1200500FA04F320FA05F001FA04F247
:1006E80040EA020001F0004110EBD37041F1000133
:1006F8005EEA430E08BF20EAD37070BDC4F120053E
:1007080000FA05F24EEA020E20FA04F301FA05F2A5
:1007180043EA020321FA04F001F0004121FA04F24D
:1007280020EA020000EBD3705EEA430E08BF20EA1D
:10073800D37070BD94F0000F0FD101F00046400057
:1007480041EB010111F4801F08BF013CF7D041EAD9
:10075800060195F0000F18BF704703F000465200DD
:1007680043EB030313F4801F08BF013DF7D043EAAE
:100778000603704794EA0C0F0CEA135518BF95EA64
:100788000C0F0CD050EA410618BF52EA4306D1D1EB
:1007980081EA030101F000414FF0000070BD50EA0A
:1007A800410606BF1046194652EA430619D094EA94
:1007B8000C0F02D150EA013613D195EA0C0F05D17E
:1007C80052EA03361CBF104619460AD181EA0301D2
:1007D80001F0004141F0FE4141F470014FF000008A
:1007E80070BD41F0FE4141F4780170BD70B54FF025
:1007F800FF0C4CF4E06C1CEA11541DBF1CEA1355A5
:1008080094EA0C0F95EA0C0F00F0A7F8A4EB050486
:1008180081EA030E52EA03354FEA013100F088807D
:100828004FEA03334FF0805545EA131343EA126346
:100838004FEA022245EA111545EA10654FEA0026FB
:100848000EF000419D4208BF964244F1FD0404F5B4
:10085800407402D25B084FEA3202B61A65EB030510
:100868005B084FEA32024FF480104FF4002CB6EBCD
:10087800020E75EB030E22BFB61A754640EA0C004D
:100888005B084FEA3202B6EB020E75EB030E22BF8D
:10089800B61A754640EA5C005B084FEA3202B6EBCE
:1008A800020E75EB030E22BFB61A754640EA9C008D
:1008B8005B084FEA3202B6EB020E75EB030E22BF5D
:1008C800B61A754640EADC0055EA060E18D04FEA1B
:1008D800051545EA16754FEA06164FEAC30343EABB
:1008E80052734FEAC2025FEA1C1CC0D111F4801F88
:1008F8000BD141EA00014FF000004FF0004CB6E781
:1009080011F4801F04BF01430020B4F1FD0C88BF1F
:10091800BCF5E06F3FF6AFAEB5EB030C04BFB6EB2A
:10092800020C5FEA500C50F1000041EB045170BD1D
:100938000EF0004E4EEA113114EB5C04C2BFD4EB4A
:100948000C0541EA045170BD41F480114FF0000ECE
:10095800013C90E645EA060E8DE60CEA135594EA4A
:100968000C0F08BF95EA0C0F3FF43BAF94EA0C0F4D
:100978000AD150EA01347FF434AF95EA0C0F7FF4C2
:1009880025AF104619462CE795EA0C0F06D152EA16
:1009980003353FF4FDAE1046194622E750EA4106FA
:1009A80018BF52EA43067FF4C5AE50EA41047FF40B
:1009B8000DAF52EA43057FF4EBAE12E74FEA41026E
:1009C80012F5001215D211D56FF47873B3EB625299
:1009D80012D94FEAC12343F0004343EA505311F0C0
:1009E800004F23FA02F018BF404270474FF0000052
:1009F800704750EA013005D111F0004008BF6FF090
:100A0800004070474FF00000704700BF80B500AF4E
:100A1800094B1B780133DAB2074B1A70064B1B7867
:100A2800142B07D9044B00221A704FF400510348C5
:100A380003F091FC00BF80BD96000020001001402B
:100A480080B582B000AF0023FB7100F037F9104980
:100A5800104800F02BF8104A1049114800F033F8FC
:100A680001F0D8F800F044FC0346FB71FB79002B39
:100A780003D00C4804F092FEFEE7322000F0BCF8E8
:100A8800094804F08BFE00BF0837BD4680BD00BF93
:100A98008E0000208C00002094000020920000208E
:100AA80090000020C4660008D866000880B582B0AF
:100AB80000AF786039603968786801F0B9F800BF2C
:100AC8000837BD4680BD80B584B000AFF860B96016
:100AD8007A607A68B968F86801F0BEF800BF103724
:100AE800BD4680BD80B582B000AF01F029F903464C
:100AF8007B607B68002B06D1144B1B780133DAB27C
:100B0800124B1A7002E0114B00221A700F4B1B781F
:100B1800142B0BD90D4B00221A700D4B00221A8092
:100B28000C4B00221A800C4B00221A80084BB3F998
:100B38000030084AB2F90010074AB2F900201846F6
:100B480000F032F900BF0837BD4680BD970000208D
:100B580090000020920000209400002080B500AF93
:100B6800012000F08FFB0346002B04D0322000F058
:100B780043F800F015FEFFF7B5FF00F021FEFFF780
:100B880045FF00F079F8062001F0C0FE00BF80BDE7
:100B980080B483B000AF0346FB80044AFB8813800F
:100BA80000BF0C37BD4680BC704700BF98000020CE
:100BB80080B400AF024B1B881846BD4680BC704706
:100BC8009800002080B483B000AF0346FB71044A4C
:100BD800FB79137000BF0C37BD4680BC704700BF5F
:100BE8009A00002080B400AF024B1B781846BD461F
:100BF80080BC70479A00002080B582B000AF0346E1
:100C0800FB80FB88012B0BD10120FFF7DBFF0020C5
:100C1800FFF7BEFF01222021154803F084FB22E0E4
:100C2800FB88002B0BD10020FFF7CCFF0020FFF73B
:100C3800AFFF002220210E4803F075FB13E0FB886C
:100C4800092B10D90220FFF7BDFFFB88094AA2FB38
:100C58000323DB089BB21846FFF79AFF01222021E5
:100C6800034803F060FB00BF0837BD4680BD00BFE6
:100C780000100140CDCCCCCC80B500AFFFF7B2FF5F
:100C88000346022B13D1FFF793FF0346002B06D030
:100C9800084B1B88013B9AB2064B1A8007E00022DA
:100CA8002021054803F03FFB0020FFF78BFF00BF22
:100CB80080BD00BF980000200010014080B500AF43
:100CC8001C4B00225A611B4B00229A61194B0122CE
:100CD800DA61184B00221A60164B00225A60154B35
:100CE80000229A60134B0022DA60124B00221A612C
:100CF800104B1B225A620F4B01221A620D490E48F3
:100D080001F023FF0346002B01D001F0ABFB0A489A
:100D180001F0E4FF0346002B01D001F0A3FB022100
:100D2800054802F00AFA0346002B01D001F09AFBAD
:100D380000BF80BDD00000206C01002080B400AF4F
:100D48000A4B00221A60094B094A5A60074B0022D5
:100D5800DA60064B04229A60044B08221A61034B9E
:100D680000221A7500BFBD4680BC70479C00002059
:100D7800006FF41F80B582B000AF786039603B68BF
:100D88007A680649064801F0EDFF0346002B01D0BA
:100D980001F068FB00BF0837BD4680BD9C000020FD
:100DA8006C01002000000000B0B588B000AF034619
:100DB800FB800B46BB8013467B8000233B610023EE
:100DC8007B610023FB60FFF7B9FFB7F90620B7F98D
:100DD80004301A44B7F90230D90F0B445B101BB228
:100DE800D21A13461B019B1A9B001846FFF76AFB91
:100DF800DDA3D3E90023FFF7CFFB02460B461046DD
:100E08001946DBA3D3E90023FFF7F0FC02460B46A3
:100E180010461946FFF7D2FD0346FB83B7F90620B3
:100E2800B7F90430D21AB7F90230D90F0B445B1066
:100E38001BB2D21A13461B019B1A9B001846FFF7D8
:100E480041FBC9A3D3E90023FFF7A6FB02460B46E3
:100E580010461946C6A3D3E90023FFF7C7FC02468C
:100E68000B4610461946FFF7A9FD0346BB83B7F9A1
:100E78000620B7F904301A44B7F90230D90F0B44E9
:100E88005B101BB21A4413461B019B1A9B001846A1
:100E9800FFF718FBB4A3D3E90023FFF77DFB024655
:100EA8000B4610461946B2A3D3E90023FFF79EFC70
:100EB80002460B4610461946FFF780FD03467B8322
:100EC800B7F90620B7F90430D21AB7F90230D90FAA
:100ED8000B445B101BB21A4413461B019B1A9B0060
:100EE8001846FFF7EFFAA0A3D3E90023FFF754FB56
:100EF80002460B46104619469DA3D3E90023FFF787
:100F080075FC02460B4610461946FFF757FD034687
:100F18003B83B7F90630002B45DDB7F90430002BC9
:100F280041D1B7F90230002B3DD1B7F91C30184632
:100F3800FFF7C8FA04460D46B7F91C301846FFF704
:100F4800C1FA8DA3D3E90023FFF726FB02460B461F
:100F580020462946FFF76AF902460B46104619460D
:100F6800FFF72CFD0346BB83B7F91E301846FFF781
:100F7800A9FA04460D46B7F91E301846FFF7A2FA3B
:100F88007DA3D3E90023FFF707FB02460B46204663
:100F98002946FFF74BF902460B4610461946FFF75C
:100FA8000DFD0346FB83B7F90630002B45DAB7F988
:100FB8000430002B41D1B7F90230002B3DD1B7F9ED
:100FC8001C301846FFF77EFA04460D46B7F91C3068
:100FD8001846FFF777FA6AA3D3E90023FFF7DCFA8C
:100FE80002460B4620462946FFF720F902460B46E3
:100FF80010461946FFF7E2FC0346BB83B7F91E30DB
:101008001846FFF75FFA04460D46B7F91E30184632
:10101800FFF758FA5AA3D3E90023FFF7BDFA0246AF
:101028000B4620462946FFF701F902460B461046B3
:101038001946FFF7C3FC0346FB83B7F90430002BBE
:1010480045DDB7F90630002B41D1B7F90230002B46
:101058003DD1B7F91C301846FFF734FA04460D465F
:10106800B7F91C301846FFF72DFA47A3D3E9002338
:10107800FFF792FA02460B4620462946FFF7D6F8B4
:1010880002460B4610461946FFF798FC0346BB83F9
:10109800B7F91A301846FFF715FA04460D46B7F99E
:1010A8001A301846FFF70EFA37A3D3E90023FFF7E3
:1010B80073FA02460B4620462946FFF7B7F8024660
:1010C8000B4610461946FFF779FC03467B83B7F9B0
:1010D8000430002B5CDAB7F90630002B58D1B7F989
:1010E8000230002B54D1B7F91C301846FFF7EAF943
:1010F80004460D46B7F91C301846FFF7E3F920A35C
:10110800D3E90023FFF748FA02460B462046294652
:10111800FFF78CF802460B4610461946FFF74EFCBF
:101128000346BB83B7F91A301846FFF7CBF90446D4
:101138000D46B7F91A301846FFF7C4F910A3D3E9DA
:101148000023FFF729FA02460B4620462946FFF7F7
:101158006DF802460B4610461946FFF72FFC03466A
:101168007B8315E0AFF300803333333333334340AD
:10117800FBB836548CA283409CC420B07268813F6F
:101188001B2FDD240681753FDBF97E6ABC74833F23
:101198007B8BDBB25B42DBB23B74B7F91A305B4244
:1011A8001B12DBB27B74BB8BDBB2BB74B7F91C3090
:1011B8001B121BB2DBB2FB74FB8BDBB23B75B7F9BE
:1011C8001E301B121BB2DBB27B753B8BDBB25B4262
:1011D800DBB2BB75B7F918305B421B12DBB2FB758B
:1011E80007F10C0207F1100311461846FFF7C2FD7C
:1011F80000BF2037BD46B0BDF0B58BB006AF7860F4
:101208007B681B68144A934222D107F10803134AEA
:101218000021786801F080FE0346002B02D001F01F
:1012280021F915E03B7A1D467B7A1E46BB7A9C461F
:10123800FB7A3A7B797BB87BFC7B04940390029120
:1012480001920093634632462946054804F020FA85
:1012580000BF1437BD46F0BD00640040B400002054
:101268001467000880B500AF0421054803F044F86E
:101278000346002B01D1012300E00023184680BD5E
:101288000014014080B582B000AF0346FB71FFF740
:10129800E9FF0346012B0ED10E4B1B881A46FB793A
:1012A80001335B009A4209DA0A4B1B8801339AB270
:1012B800084B1A8002E0074B00221A80054B1B8856
:1012C800022B01D1012300E0002318460837BD4650
:1012D80080BD00BFF800002080B500AF00224FF4A9
:1012E8008041024803F01FF800BF80BD000C014098
:1012F80080B582B000AFFFF7EFFF00F0ECFA0A20EC
:1013080000F089F90023FB7180226B21682000F02E
:10131800E1F9642000F07FF900226B21682000F0D9
:10132800D9F9012000F05AF8002000F069F83220BD
:1013380000F0AAF800223821682000F0CBF900223A
:101348006A21682000F0C6F900222321682000F0F5
:10135800C1F982223721682000F0BCF97521682084
:1013680000F0ECF90346FB71FB791946194804F0C3
:101378008FF9FB79712B02D0FB79732B1BD10122DA
:101388006B21682000F0A6F900226C21682000F08B
:10139800A1F9322000F078F800210C2000F0CEF9F5
:1013A8000346FB71FB7919460B4804F071F9FB7988
:1013B800482B02D008E0012307E011220A210C2063
:1013C80000F088F9002300E0022318460837BD46DC
:1013D80080BD00BF4C6700086467000880B582B014
:1013E80000AF0346FB71FB79DB00DBB21A461B2119
:1013F800682000F06FF9034618460837BD4680BDDF
:1014080080B582B000AF0346FB71FB79DB00DBB22D
:101418001A461C21682000F05DF903461846083773
:10142800BD4680BD80B584B000AF0346FB80002375
:10143800FB73FB88BB2B02D90123FB7319E0FB88E4
:10144800612B02D90223FB7313E0FB88292B02D9F5
:101458000323FB730DE0FB88132B02D90423FB73D2
:1014680007E0FB88092B02D90523FB7301E006235B
:10147800FB73FB7B1A461A21682000F02BF9034600
:1014880018461037BD4680BD80B584B000AF03460E
:10149800FB80FB88B3F57A7F02D94FF47A73FB801F
:1014A800FB88032B01D80423FB80FB884FF47A7256
:1014B80092FBF3F3DBB2013BFB73FB7B1A4619216A
:1014C800682000F007F90346FB73FB885B089BB2B2
:1014D8001846FFF7A7FF034618461037BD4680BDDC
:1014E80080B586B000AFF860B9607A6007F1100384
:1014F80006224321682000F09BF80346FB75FB7D1C
:10150800002B1AD13B7C1B021AB27B7C1BB2134303
:101518001AB2FB681A80BB7C1B021AB2FB7C1BB296
:1015280013431AB2BB681A803B7D1B021AB27B7D3B
:101538001BB213431AB27B681A80FB7D1846183712
:10154800BD4680BD80B586B000AFF860B9607A60EE
:1015580007F1100306223B21682000F069F80346D2
:10156800FB75FB7D002B1AD13B7C1B021AB27B7CDE
:101578001BB213431AB2FB681A80BB7C1B021AB257
:10158800FB7C1BB213431AB2BB681A803B7D1B025B
:101598001AB27B7D1BB213431AB27B681A80FB7D9B
:1015A80018461837BD4680BD80B586B000AFF860D4
:1015B800B9607A6007F11003062203210C2000F0BD
:1015C80037F80346FB75FB7D002B1AD17B7C1B0289
:1015D8001AB23B7C1BB213431AB2FB681A80FB7C1D
:1015E8001B021AB2BB7C1BB213431AB2BB681A8027
:1015F8007B7D1B021AB23B7D1BB213431AB27B6878
:101608001A8011220A210C2000F064F8FB7D18468C
:101618001837BD4680BD80B582B000AF0346FB8059
:10162800FB88184601F072F900BF0837BD4680BD37
:1016380080B582B000AF3B600346FB710B46BB71BF
:1016480013467B7100F04EF9FB795B00DBB218465C
:1016580000F04CFA00F0A6F90346002B03D000F086
:1016680071F9012332E0BB79184600F03FFA00F027
:1016780099F900F037F9FB795B005BB243F001039D
:101688005BB2DBB2184600F031FA00F08BF917E0D4
:101698007B79012B07D1002000F070FA03461A4627
:1016A8003B681A7006E0012000F068FA03461A4603
:1016B8003B681A707B79013B7B713B6801333B6067
:1016C8007B79002BE4D100F03DF900231846083758
:1016D800BD4680BD80B582B000AF0346FB710B46A6
:1016E800BB7113467B7100F0FDF8FB795B00DBB240
:1016F800184600F0FBF900F055F90346002B03D01B
:1017080000F020F9012315E0BB79184600F0EEF946
:1017180000F048F97B79184600F0E8F900F042F942
:101728000346002B03D000F00DF9012302E000F07E
:1017380009F9002318460837BD4680BD80B584B036
:1017480000AF03460A46FB711346BB7100F0CAF8A6
:10175800FB795B00DBB2184600F0C8F900F022F90B
:10176800BB79184600F0C2F900F01CF900F0BAF88D
:10177800FB795B005BB243F001035BB2DBB2184656
:1017880000F0B4F900F00EF9002000F0F7F9034674
:10179800FB7300F0D7F8FB7B18461037BD4680BDB9
:1017A80080B500AF034A04490448FFF799FE00BF1B
:1017B80080BD00BF100100200E0100200C01002098
:1017C800F0B587B006AF294A29492A48FFF7BAFE7B
:1017D800294A2A492A48FFF783FE2A4A2A492B48D8
:1017E800FFF7E2FE234BB3F90050214BB3F9006039
:1017F8001E4BB3F900C0224BB3F900309AB2244B08
:10180800B3F900309BB2D31A9BB20FFA83FE1B4B7D
:10181800B3F900309AB21F4BB3F900309BB2D31A18
:101828009BB21BB2144AB2F9002091B21A4AB2F91B
:10183800002092B28A1A92B212B21449B1F9001079
:101848001148B0F900000F4CB4F90040049403901B
:10185800029101920093734662463146284600F091
:101868003DFB00BF0437BD46F0BD00BFFE000020B1
:10187800FC000020FA0000200401002002010020E2
:10188800000100200A0100200801002006010020B4
:101898000C0100200E0100201001002080B485B04A
:1018A80000AF0346FB710023FB730BE00023FB73BF
:1018B80002E0FB7B0133FB73FB7B092BF9D9FB7936
:1018C800013BFB71FB79002BF0D100BF00BF14373F
:1018D800BD4680BC704780B500AF0120FFF7DEFF32
:1018E80000BF80BD80B500AF154B5B68144A23F07C
:1018F80070435360124B5B68114A43F04053536086
:1019080001224FF400410E4802F00DFD01224FF470
:1019180000510B4802F007FD0420FFF7BFFF00222B
:101928004FF40041064802F0FEFC0420FFF7B6FF22
:1019380000224FF40051024802F0F5FC00BF80BDC0
:10194800000C014080B500AF154B5B68144A23F0CA
:1019580070435360124B5B68114A43F04053536025
:1019680000224FF400510E4802F0DDFC00224FF433
:1019780000410B4802F0D7FC0420FFF78FFF01223B
:101988004FF40051064802F0CEFC01224FF400410A
:10199800034802F0C8FC0420FFF780FF00BF80BDA9
:1019A800000C014080B582B000AF0023FB711E4BD4
:1019B8005B681D4A23F0704353601B4B5B681A4AEF
:1019C80043F00043536001224FF40041164802F0EF
:1019D800AAFC0120FFF762FF01224FF400511248D0
:1019E80002F0A1FC0120FFF759FF09E0FB79013360
:1019F800FB71FB79FA2B03D9FFF7A4FF01230EE053
:101A08004FF40041084802F077FC0346002BEDD163
:101A180000224FF40051044802F085FC00231846C8
:101A28000837BD4680BD00BF000C014080B500AF3F
:101A380000224FF40051144802F075FC124B5B6809
:101A4800114A23F0704353600F4B5B680E4A43F012
:101A58004053536000224FF400410B4802F063FCEE
:101A68000220FFF71BFF01224FF40051064802F045
:101A78005AFC0220FFF712FF00224FF400510248DF
:101A880002F051FC00BF80BD000C014080B500AFE2
:101A980000224FF40051144802F045FC124B5B68D9
:101AA800114A23F0704353600F4B5B680E4A43F0B2
:101AB8004053536001224FF400410B4802F033FCBD
:101AC8000220FFF7EBFE01224FF40051064802F016
:101AD8002AFC0220FFF7E2FE00224FF400510248E0
:101AE80002F021FC00BF80BD000C014080B584B02D
:101AF80000AF0346FB71204B5B681F4A23F070431D
:101B080053601D4B5B681C4A43F0405353600022EE
:101B18004FF40051184802F006FC0023FB7323E041
:101B2800FB79DB09DBB21A464FF40041124802F098
:101B3800FAFBFB795B00FB710220FFF7AFFE012285
:101B48004FF400510C4802F0EEFB0220FFF7A6FE0E
:101B580000224FF40051084802F0E5FB0220FFF78D
:101B68009DFEFB7B0133FB73FB7B072BD8D900BFA2
:101B780000BF1037BD4680BD000C014080B584B061
:101B880000AF0346FB710023BB73214B5B68204AFF
:101B980023F0704353601E4B5B681D4A43F00043BB
:101BA80053600023FB7322E000224FF400511848D1
:101BB80002F0B9FB0220FFF771FE01224FF4005139
:101BC800134802F0B0FBBB7B5B00BB734FF40041D2
:101BD8000F4802F091FB0346002B02D0BB7B013378
:101BE800BB730120FFF75AFEFB7B0133FB73FB7BC2
:101BF800072BD9D9FB79002B02D1FFF747FF01E06A
:101C0800FFF714FFBB7B18461037BD4680BD00BFE9
:101C1800000C014080B500AF01220349034803F0DE
:101C2800ACF800BF80BD00BF130100209801002060
:101C380080B483B000AF78603960054A3B681360B0
:101C4800044A7B68136000BF0C37BD4680BC7047F0
:101C5800240100202801002080B485B000AFF8607E
:101C6800B9607A60064AFB681360064ABB6813606D
:101C7800054A7B68136000BF1437BD4680BC7047B7
:101C88002C010020300100203401002080B483B0F2
:101C980000AF0346FB71264B1B78022B26D0022B84
:101CA8003BDC002B02D0012B0BD036E05522FB7910
:101CB800934234D155221F4B1A701D4B01221A70C2
:101CC8002DE0AA22FB79934209D1AA22194B5A7016
:101CD800174B02221A70184B02221A7022E0144B7A
:101CE80000221A70134B00221A701BE0124B1B784B
:101CF8001946104AFB7953540F4B1B780133DAB25B
:101D08000D4B1A700C4B1B780B2B0AD9084B002271
:101D18001A700A4B01221A7003E000BF02E000BFEC
:101D280000E000BF00BF0C37BD4680BC704700BF55
:101D380021010020140100202001002012010020B0
:101D480080B584B000AF0023FB7300237B602B4B6E
:101D58001B78002B4CD00123FB73284B00221A70F0
:101D6800274B9B787B607B689BB203339BB21946F9
:101D7800234800F053F80346FB70214B5B7AFA784E
:101D88009A4235D10023BB601DE0BB6803331C4A6F
:101D9800D15C1C4ABB6813440A461A70BB680533F9
:101DA800174AD15C184ABB6813440A461A70BB68C4
:101DB8000733134AD15C154ABB6813440A461A70A4
:101DC800BB680133BB60BB68012BDEDD104B1B68B1
:101DD8000C4AB2F900201A800E4B1B680A4AB2F965
:101DE80000201A800C4B1B68084AB2F900201A80A0
:101DF800FB7B18461037BD4680BD00BF120100208E
:101E080014010020380100203C010020400100207E
:101E18002C010020300100203401002080B485B05E
:101E280000AF78600B467B800023FB731FE07B6864
:101E38005A1C7A601A78FB7B5340FB730023BB73F0
:101E480012E0FB7B03F00103002B07D0FB7B5B0850
:101E5800DBB283F07303DB43FB7302E0FB7B5B08BD
:101E6800FB73BB7B0133BB73BB7B072BE9D97B8837
:101E78005A1E7A80002BDAD1FB7B18461437BD46F0
:101E880080BC704780B483B000AF78600B467B801D
:101E980012E000BF0F4B1B6803F08003002BF9D042
:101EA8007B681A780B4B5A607B6801337B600A4B5E
:101EB8001B680133084A13607A88074B1B689A42EB
:101EC800E7DC054B00221A6000BF0C37BD4680BC1A
:101ED800704700BF003801406801002090B58BB002
:101EE80000AF0446084611461A462346FB800346BF
:101EF800BB800B467B8013463B800023BB6007F109
:101F08000C0300221A605A609A60DA601A61002392
:101F18003B62624AFB881380614ABB881380614A2E
:101F28007B881380604A3B881380604A3B8F13800C
:101F38005F4ABB8F13805F4AB7F8403013805E4A10
:101F4800B7F8443013805D4AB7F84830138000234F
:101F58007B620CE05A4A7B6A1344197807F108023D
:101F68007B6A13440A461A707B6A01337B627B6A78
:101F7800012BEFDD12233B623B6ADBB2BB7200230D
:101F88007B625CE07B6A033344497A6A0A441278CC
:101F980028333B4403F8202C7B6A053340497A6A8E
:101FA8000A44127828333B4403F8202C7B6A073311
:101FB8003C497A6A0A44127828333B4403F8202CB7
:101FC8007B6A093338497A6A0A44127828333B44D1
:101FD80003F8202C7B6A0B3334497A6A0A44127856
:101FE80028333B4403F8202C7B6A0D3330497A6A46
:101FF8000A44127828333B4403F8202C7B6A0F33B9
:102008002C497A6A0A44127828333B4403F8202C76
:102018007B6A113328497A6A0A44127828333B4488
:1020280003F8202C7B6A133324497A6A0A4412780D
:1020380028333B4403F8202C7B6A01337B627B6A9C
:10204800012B9FDD3B6A9BB203339AB23B6ADC1CCF
:1020580007F1080311461846FFF7E0FE03461A4643
:1020680004F128033B4403F8202C3B6A04330D2277
:1020780028333B4403F8202C3B6A05330A222833D3
:102088003B4403F8202C07F1080318211846FFF7F2
:10209800F9FE00BF2C37BD4690BD00BF44010020AB
:1020A800480100204C01002050010020540100206C
:1020B800580100205C01002060010020640100201C
:1020C800C467000880B582B000AF7860064B1B7803
:1020D8001846FFF7DBFD01220349044802F04DFED4
:1020E80000BF0837BD4680BD1301002098010020BD
:1020F80080B582B000AF7860391D4FF6FF730122BA
:10210800034802F0A8FD7B6818460837BD4680BD25
:102118009801002080B500AF184B194A1A60174B78
:1021280008225A60154B4FF080429A60134B0022E8
:10213800DA60124B4FF4A0221A61104B4FF4801250
:102148005A610E4B00221A760C4B00225A760B4B22
:1021580000229A76094B0022DA76084B00221A7779
:10216800064B00225A77054800F0F4FB0346002B83
:1021780001D000F077F900BF80BD00BF6C010020DE
:102188000064004080B58AB000AF786007F114039E
:1021980000221A605A609A60DA607B681B68294AD4
:1021A80093424BD1284BDB69274A43F00073D36134
:1021B800254BDB6903F000733B613B69224B9B694C
:1021C800214A43F0080393611F4B9B6903F00803FE
:1021D800FB60FB684FF480737B610023BB610023C5
:1021E800FB6107F114031946184801F0F1FE4FF49A
:1021F80000737B610223BB6103233B6207F1140375
:102208001946124801F0E4FE114B5B687B627B6A59
:1022180023F4C0437B627B6A43F0E0637B627B6AA2
:1022280043F480437B620A4A7B6A536000220021A0
:10223800142001F0A2FA142001F0BBFA00BF2837DD
:10224800BD4680BD0064004000100240000C014003
:102258000000014080B582B000AF0C4B5B690B4AAF
:1022680043F001035361094B5B6903F001037B6091
:102278007B68002200210E2001F07FFA0E2001F079
:1022880098FA00BF0837BD4680BD00BF0010024065
:1022980080B588B000AF07F1100300221A605A60B9
:1022A8009A60DA603F4B9B693E4A43F010039361A2
:1022B8003C4B9B6903F01003FB60FB68394B9B693F
:1022C800384A43F020039361364B9B6903F020039F
:1022D800BB60BB68334B9B69324A43F00803936188
:1022E800304B9B6903F008037B607B682D4B9B692F
:1022F8002C4A43F0040393612A4B9B6903F00403BF
:102308003B603B68002242F22001274802F00BF8AC
:1023180001224FF42041254802F005F800224FF42D
:102328008041224801F0FFFF42F220033B61012374
:102338007B610023BB610223FB6107F1100319468F
:10234800194801F045FE4FF420433B6101237B61AE
:102358000123BB610323FB6107F1100319461348EE
:1023680001F036FE4FF480433B6101237B6100237B
:10237800BB610223FB6107F1100319460B4801F00A
:1023880027FE04233B6100237B610123BB6107F126
:1023980010031946064801F01BFE00BF2037BD4652
:1023A80080BD00BF0010024000100140000C014039
:1023B8000014014080B500AF00F046FA00F00DF8B7
:1023C800FFF766FFFFF7A6FEFFF744FF00F06EF980
:1023D800FEF736FBFEF7C2FBFCE780B590B000AF16
:1023E80007F1180328220021184603F049F93B1D7C
:1023F80000221A605A609A60DA601A610123BB6190
:102408004FF48033FB6100233B620123BB6202234C
:102418007B634FF48033BB634FF4E013FB6307F136
:102428001803184601F0B0FF0346002B01D000F056
:1024380019F80F237B600223BB600023FB604FF475
:1024480080633B6100237B613B1D0221184602F03B
:102458001DFA0346002B01D000F004F800BF4037F6
:10246800BD4680BD80B400AF72B600BFFEE7000075
:1024780080B485B000AF154B9B69144A43F0010343
:102488009361124B9B6903F00103BB60BB680F4B60
:10249800DB690E4A43F08053D3610C4BDB6903F0D0
:1024A80080537B607B680A4B5B68FB60FB6823F0AA
:1024B800E063FB60FB6843F00073FB60044AFB6861
:1024C800536000BF1437BD4680BC704700100240FF
:1024D8000000014080B400AFFEE780B400AFFEE723
:1024E80080B400AFFEE780B400AFFEE780B400AF71
:1024F800FEE780B400AF00BFBD4680BC704780B423
:1025080000AF00BFBD4680BC704780B400AF00BFBD
:10251800BD4680BC704780B500AF00F0DBF900BF56
:1025280080BD000080B500AF024801F015FB00BF78
:1025380080BD00BFDC01002080B500AF024800F07C
:1025480021FE00BF80BD00BF6C01002080B500AF38
:10255800024802F043FC00BF80BD00BF9801002084
:1025680080B586B000AFF860B9607A6000237B61FF
:102578000AE0AFF300800146BB685A1CBA60CAB2D1
:102588001A707B6901337B617A697B689A42F0DB58
:102598007B6818461837BD4680BD80B586B000AF49
:1025A800F860B9607A6000237B6109E0BB685A1C57
:1025B800BA601B781846FFF79BFD7B6901337B6186
:1025C8007A697B689A42F1DB7B6818461837BD4602
:1025D80080BD80B483B000AF78604FF0FF331846F9
:1025E8000C37BD4680BC704780B483B000AF7860BC
:1025F80039603B684FF400525A60002318460C3784
:10260800BD4680BC704780B483B000AF78600123BA
:1026180018460C37BD4680BC704780B485B000AF03
:10262800F860B9607A60002318461437BD4680BC4C
:102638007047000080B586B000AF7860144A154B2B
:10264800D31A7B617B693B61134B1B68002B02D15A
:10265800114B124A1A60104B1A687B6813443A6986
:102668009A4207D202F0E2FF03460C221A604FF0AA
:10267800FF3309E0084B1B68FB60074B1A687B684F
:102688001344054A1360FB6818461837BD4680BDD9
:1026980000C000200004000094010020380200203F
:1026A80080B400AF00BFBD4680BC704780B500AFA6
:1026B800114B124A1A60104B4FF4E1325A600E4B1C
:1026C80000229A600C4B0022DA600B4B00221A6140
:1026D800094B0C225A61084B00229A61064B0022D2
:1026E800DA61054802F06AFA0346002B01D0FFF7C9
:1026F800B9FE00BF80BD00BF98010020003801402E
:1027080080B588B000AF786007F1100300221A6026
:102718005A609A60DA607B681B68334A93425FD1DB
:10272800324B9B69314A43F4804393612F4B9B6939
:1027380003F48043FB60FB682C4B9B692B4A43F0F6
:1027480004039361294B9B6903F00403BB60BB68D6
:102758004FF400733B6102237B610323FB6107F1A4
:1027680010031946224801F033FC4FF480633B61A3
:1027780000237B610023BB6107F1100319461C4845
:1027880001F026FC1B4B1C4A1A601A4B10225A6097
:10279800184B00229A60174B8022DA60154B0022F2
:1027A8001A61144B00225A61124B00229A61114B94
:1027B8000022DA610F4801F017F80346002B01D018
:1027C800FFF750FE7B680B4A5A630A4A7B685362DC
:1027D80000220021252000F0D0FF252000F0E9FF8D
:1027E80000BF2037BD4680BD0038014000100240C0
:1027F80000080140DC010020440002400C480D495B
:102808000D4A002302E0D458C4500433C4188C4243
:10281800F9D30A4A0A4C002301E013600432A242A9
:10282800FBD3FFF73DFF02F007FFFFF7C3FD70473B
:102838000000002070000020806800087000002060
:1028480034020020FEE7000080B500AF084B1B688B
:10285800074A43F010031360032000F083FF0F20A2
:1028680000F008F8FFF704FE0023184680BD00BFFB
:102878000020024080B582B000AF7860124B1A6821
:10288800124B1B7819464FF47A73B3FBF1F3B2FB82
:10289800F3F3184600F09BFF0346002B01D00123F9
:1028A8000EE07B680F2B0AD8002279684FF0FF30C2
:1028B80000F063FF064A7B681360002300E00123F1
:1028C80018460837BD4680BD0000002008000020DB
:1028D8000400002080B400AF054B1B781A46054B56
:1028E8001B681344034A136000BFBD4680BC704791
:1028F800080000202002002080B400AF024B1B68B3
:102908001846BD4680BC70472002002080B584B0C0
:1029180000AF7860FFF7F0FFB8607B68FB60FB688A
:10292800B3F1FF3F05D00A4B1B781A46FB681344E6
:10293800FB6000BFFFF7E0FF0246BB68D31AFA68E6
:102948009A42F7D800BF00BF1037BD4680BD00BF10
:102958000800002080B584B000AF78607B68002B49
:1029680001D10123EDE07B6893F82030DBB2002B26
:1029780002D17868FFF706FC7B681B681A687B68D9
:102988001B6842F001021A60FFF7B6FFF86012E018
:10299800FFF7B2FF0246FB68D31A0A2B0BD97B68F4
:1029A8005B6A43F400327B685A627B68052283F8CD
:1029B80020200123C5E07B681B685B6803F00103E6
:1029C800002BE5D07B681B681A687B681B6822F0BF
:1029D80002021A60FFF790FFF86012E0FFF78CFF21
:1029E8000246FB68D31A0A2B0BD97B685B6A43F44F
:1029F80000327B685A627B68052283F82020012315
:102A08009FE07B681B685B6803F00203002BE5D13D
:102A18007B681B7E012B08D17B681B681A687B6862
:102A28001B6842F080021A6007E07B681B681A681E
:102A38007B681B6822F080021A607B685B7E012B32
:102A480008D17B681B681A687B681B6842F04002E3
:102A58001A6007E07B681B681A687B681B6822F0AD
:102A680040021A607B689B7E012B08D17B681B683B
:102A78001A687B681B6842F020021A6007E07B68CE
:102A88001B681A687B681B6822F020021A607B6842
:102A9800DB7E012B08D17B681B681A687B681B6882
:102AA80022F010021A6007E07B681B681A687B68CE
:102AB8001B6842F010021A607B681B7F012B08D14B
:102AC8007B681B681A687B681B6842F008021A60FA
:102AD80007E07B681B681A687B681B6822F008029D
:102AE8001A607B685B7F012B08D17B681B681A68BA
:102AF8007B681B6842F004021A6007E07B681B6869
:102B08001A687B681B6822F004021A607B689A685E
:102B18007B68DB681A437B681B691A437B685B69BF
:102B280042EA03017B685B685A1E7B681B680A439C
:102B3800DA617B6800225A627B68012283F82020D0
:102B4800002318461037BD4680BD80B487B000AF5B
:102B5800786039607B681B687B617B6893F82030FC
:102B6800FB74FB7C012B03D0FB7C022B40F0AA807A
:102B78007B69D3F8003243F001027B69C3F8002275
:102B88003B685B6903F01F03012202FA03F3FB6051
:102B98007B69D3F81C22FB68DB431A407B69C3F8C6
:102BA8001C223B68DB69002B23D17B69D3F80C22FC
:102BB800FB68DB431A407B69C3F80C223B68DB687F
:102BC80019043B685B689BB23A68526919437B6990
:102BD800483243F832103B689B6819043B681B680D
:102BE8009AB23B685B690A4379694833DB000B4456
:102BF8005A603B68DB69012B22D17B69D3F80C2230
:102C0800FB681A437B69C3F80C223B681B681904EC
:102C18003B685B689BB23A68526919437B694832E2
:102C280043F832103B689B6819043B68DB689AB22A
:102C38003B685B690A4379694833DB000B445A6097
:102C48003B689B69002B09D17B69D3F80422FB6898
:102C5800DB431A407B69C3F8042207E07B69D3F899
:102C68000422FB681A437B69C3F804223B681B698A
:102C7800002B09D17B69D3F81422FB68DB431A4087
:102C88007B69C3F8142207E07B69D3F81422FB6838
:102C98001A437B69C3F814223B681B6A012B07D1CE
:102CA8007B69D3F81C22FB681A437B69C3F81C2292
:102CB8007B69D3F8003223F001027B69C3F8002254
:102CC800002306E07B685B6A43F480227B685A62D3
:102CD800012318461C37BD4680BC704780B584B0B8
:102CE80000AF78607B6893F82030DBB2012B2ED1DF
:102CF8007B68022283F820207B681B681A687B683F
:102D08001B6822F001021A60FFF7F6FDF86012E076
:102D1800FFF7F2FD0246FB68D31A0A2B0BD97B6832
:102D28005B6A43F400327B685A627B68052283F849
:102D38002020012312E07B681B685B6803F0010315
:102D4800002BE5D17B6800225A62002306E07B68ED
:102D58005B6A43F400227B685A62012318461037E5
:102D6800BD4680BD80B489B000AFF860B9607A60B4
:102D78003B60FB6893F82030FB77FB681B689B6817
:102D8800BB61FB7F012B03D0FB7F022B40F0B88097
:102D9800BB6903F08063002B0AD1BB6903F00063B1
:102DA800002B05D1BB6903F08053002B00F0A080F5
:102DB800BB691B0E03F003037B617B69022B07D9F8
:102DC800FB685B6A43F40002FB685A6201239EE0D9
:102DD80001227B699A403B681A60BB689B68002B9C
:102DE8000DD1BB681B685A05BB68DB68F9680968C0
:102DF8001A437B6918331B010B441A600FE0BB6848
:102E08005B68DA00BB689B681A43BB68DB68F968D3
:102E180009681A437B6918331B010B441A60FB6865
:102E28001968BB681A697B6918331B010B440433A2
:102E38001A60BB681B7D012B11D1FB681A687B697E
:102E480018331B01134404331B68FA68116843F4F0
:102E580080727B6918331B010B4404331A607B684A
:102E680007331B781A067B6806331B781B041A4342
:102E78007B6805331B781B0213437A680432127887
:102E88001046FA68116843EA00027B691B010B448B
:102E980003F5C6731A607B6803331B781A067B68D0
:102EA80002331B781B041A437B6801331B781B020F
:102EB80013437A6812781046FA68116843EA0002E8
:102EC8007B691B010B4403F5C4731A60FB681A681D
:102ED8007B6918331B0113441B68FA68116843F0B7
:102EE80001027B6918331B010B441A6000230EE0B2
:102EF800FB685B6A43F40012FB685A62012306E030
:102F0800FB685B6A43F48022FB685A620123184617
:102F18002437BD4680BC704780B487B000AFF860E6
:102F2800B9607A603B60FB6893F82030FB75FB7DE5
:102F3800012B03D0FB7D022B40F0F380BB68002BF4
:102F48000ED1FB681B68DB6803F00303002B16D166
:102F5800FB685B6A43F40012FB685A620123E7E0EE
:102F6800FB681B681B6903F00303002B07D1FB6890
:102F78005B6A43F40012FB685A620123D8E0FB68DD
:102F88001A68BB681B331B0113441B6803F0040257
:102F98007B689A607B689B68002B0CD1FB681A6879
:102FA800BB681B331B0113441B685B0DC3F30A0288
:102FB8007B681A600BE0FB681A68BB681B331B014F
:102FC80013441B68DB0823F060427B685A60FB6887
:102FD8001A68BB681B331B0113441B6803F0020209
:102FE8007B68DA60FB681A68BB681B331B011344F3
:102FF80004331B6803F00F027B681A61FB681A68C8
:10300800BB681B331B01134404331B681B0ADAB269
:103018007B689A61FB681A68BB681B331B01134401
:1030280004331B681B0C9AB27B685A61FB681A68E8
:10303800BB681B01134403F5DC731B68DAB23B68F9
:103048001A70FB681A68BB681B01134403F5DC732C
:103058001B681A0A3B680133D2B21A70FB681A68F7
:10306800BB681B01134403F5DC731B681A0C3B682F
:103078000233D2B21A70FB681A68BB681B0113448A
:1030880003F5DC731B681A0E3B680333D2B21A705F
:10309800FB681A68BB681B01134403F5DE731A68E2
:1030A8003B680433D2B21A70FB681A68BB681B010C
:1030B800134403F5DE731B681A0A3B680533D2B262
:1030C8001A70FB681A68BB681B01134403F5DE73AA
:1030D8001B681A0C3B680633D2B21A70FB681A6870
:1030E800BB681B01134403F5DE731B681A0E3B68AB
:1030F8000733D2B21A70BB68002B08D1FB681B6873
:10310800DA68FB681B6842F02002DA6007E0FB68B7
:103118001B681A69FB681B6842F020021A610023C9
:1031280006E0FB685B6A43F48022FB685A6201236D
:1031380018461C37BD4680BC704780B485B000AFC8
:10314800786039607B6893F82030FB73FB7B012B38
:1031580002D0FB7B022B09D17B681B6859697B680D
:103168001B683A680A435A61002306E07B685B6A79
:1031780043F480227B685A62012318461437BD46FF
:1031880080BC704780B58AB000AF786000237B624E
:103198007B681B685B693B627B681B685B68FB61DB
:1031A8007B681B689B68BB617B681B68DB687B610D
:1031B8007B681B681B693B617B681B689B69FB60BC
:1031C8003B6A03F00103002B7CD0BB6903F00103C9
:1031D800002B23D07B681B6801229A60BB6903F02F
:1031E8000203002B03D0786800F083F916E0BB696E
:1031F80003F00403002B04D07B6A43F400637B6272
:103208000CE0BB6903F00803002B04D07B6A43F48D
:1032180080537B6202E0786800F086F9BB6903F4AA
:103228008073002B24D07B681B684FF480729A60EF
:10323800BB6903F40073002B03D0786800F062F9CF
:1032480016E0BB6903F48063002B04D07B6A43F467
:1032580000537B620CE0BB6903F40063002B04D0CD
:103268007B6A43F480437B6202E0786800F065F98A
:10327800BB6903F48033002B24D07B681B684FF4B0
:1032880080329A60BB6903F40033002B03D078685E
:1032980000F041F916E0BB6903F48023002B04D049
:1032A8007B6A43F400437B620CE0BB6903F40023B0
:1032B800002B04D07B6A43F480337B6202E0786899
:1032C80000F044F93B6A03F00803002B0CD07B693B
:1032D80003F01003002B07D07B6A43F400737B6272
:1032E8007B681B681022DA603B6A03F00403002B3A
:1032F8000BD07B6903F00803002B06D07B681B68A2
:103308000822DA60786800F02AF93B6A03F00203C1
:10331800002B09D07B681B68DB6803F00303002BD4
:1033280002D07868FDF768FF3B6A03F04003002B82
:103338000CD03B6903F01003002B07D07B6A43F4E1
:1033480080637B627B681B6810221A613B6A03F00A
:103358002003002B0BD03B6903F00803002B06D099
:103368007B681B6808221A61786800F00AF93B6AD2
:1033780003F01003002B09D07B681B681B6903F05E
:103388000303002B02D0786800F0F2F83B6A03F4DC
:103398000033002B0BD0FB6903F01003002B06D081
:1033A8007B681B6810225A60786800F0F3F83B6A63
:1033B80003F48033002B0BD0FB6903F00803002BC8
:1033C80006D07B681B6808225A60786800F0EBF822
:1033D8003B6A03F40043002B7BD0FB6903F0040332
:1033E800002B72D03B6A03F48073002B08D0FB6873
:1033F80003F00103002B03D07B6A43F001037B62D7
:103408003B6A03F40073002B08D0FB6803F0020347
:10341800002B03D07B6A43F002037B623B6A03F410
:103428008063002B08D0FB6803F00403002B03D053
:103438007B6A43F004037B623B6A03F40063002B5E
:1034480043D0FB6803F07003002B3ED0FB6803F009
:103458007003602B2BD0602B2ED8502B22D0502BF2
:103468002AD8402B19D0402B26D8302B10D0302BFF
:1034780022D8102B02D0202B05D01DE07B6A43F008
:1034880008037B6219E07B6A43F010037B6214E057
:103498007B6A43F020037B620FE07B6A43F04003C2
:1034A8007B620AE07B6A43F080037B6205E07B6A0B
:1034B80043F480737B6200E000BF7B681B689A69F5
:1034C8007B681B6822F070029A617B681B68042283
:1034D8005A607B6A002B08D07B685A6A7B6A1A4359
:1034E8007B685A62786800F067F800BF2837BD46E5
:1034F80080BD80B483B000AF786000BF0C37BD4694
:1035080080BC704780B483B000AF786000BF0C37D0
:10351800BD4680BC704780B483B000AF786000BF00
:103528000C37BD4680BC704780B483B000AF78606C
:1035380000BF0C37BD4680BC704780B483B000AF75
:10354800786000BF0C37BD4680BC704780B483B03C
:1035580000AF786000BF0C37BD4680BC704780B4B0
:1035680083B000AF786000BF0C37BD4680BC7047A1
:1035780080B483B000AF786000BF0C37BD4680BC14
:10358800704780B483B000AF786000BF0C37BD4689
:1035980080BC704780B483B000AF786000BF0C3740
:1035A800BD4680BC704780B483B000AF786000BF70
:1035B8000C37BD4680BC704780B483B000AF7860DC
:1035C80000BF0C37BD4680BC7047000080B485B092
:1035D80000AF78607B6803F00703FB600C4BDB6887
:1035E800BB60BA684FF6FF031340BB60FB681A0262
:1035F800BB68134343F0BF6343F40033BB60044A22
:10360800BB68D36000BF1437BD4680BC704700BF9D
:1036180000ED00E080B400AF044BDB681B0A03F048
:1036280007031846BD4680BC704700BF00ED00E0A8
:1036380080B483B000AF0346FB7197F90730002BC5
:103648000BDBFB7903F01F02064997F907305B098A
:10365800012000FA02F241F8232000BF0C37BD46D2
:1036680080BC704700E100E080B483B000AF03463F
:103678003960FB7197F90730002B0ADB3B68DAB237
:103688000C4997F907301201D2B20B4483F8002392
:103698000AE03B68DAB20849FB7903F00F03043B00
:1036A8001201D2B20B441A7600BF0C37BD4680BC5B
:1036B800704700BF00E100E000ED00E080B489B091
:1036C80000AFF860B9607A60FB6803F00703FB613C
:1036D800FB69C3F10703042B28BF0423BB61FB6903
:1036E8000433062B02D9FB69033B00E000237B610E
:1036F8004FF0FF32BB6902FA03F3DA43BB681A40A2
:103708007B699A404FF0FF317B6901FA03F3D94393
:103718007B680B40134318462437BD4680BC70476E
:1037280080B582B000AF78607B68013BB3F1807FE1
:1037380001D301230FE00A4A7B68013B53600F2144
:103748004FF0FF30FFF790FF054B00229A60044BC3
:1037580007221A60002318460837BD4680BD00BFFF
:1037680010E000E080B582B000AF78607868FFF7BD
:103778002DFF00BF0837BD4680BD80B586B000AFBD
:103788000346B9607A60FB7300237B61FFF742FF51
:1037980078617A68B9687869FFF790FF024697F907
:1037A8000F3011461846FFF75FFF00BF1837BD46B8
:1037B80080BD80B582B000AF0346FB7197F9073032
:1037C8001846FFF735FF00BF0837BD4680BD80B5F6
:1037D80082B000AF78607868FFF7A2FF034618460A
:1037E8000837BD4680BD000080B485B000AF786062
:1037F8000023FB607B68002B01D1012359E07B6823
:103808001B681A462D4B9A420FD87B681B681A46CC
:103818002B4B13442B4AA2FB03231B099A007B68FA
:103828001A647B68284ADA630EE07B681B681A46CC
:10383800264B1344234AA2FB03231B099A007B68E7
:103848001A647B68224ADA637B68022283F82120A3
:103858007B681B681B68FB60FB6823F47F5323F0BD
:103868003003FB607B685A687B689B681A437B68F7
:10387800DB681A437B681B691A437B685B691A43D8
:103888007B689B691A437B68DB691343FA681343B7
:10389800FB607B681B68FA681A607B6800229A6381
:1038A8007B68012283F821207B68002283F820208E
:1038B800002318461437BD4680BC704707040240F1
:1038C800F8FFFDBFCDCCCCCC00000240F8FBFDBF1B
:1038D8000004024080B485B000AF78600023FB7319
:1038E8007B6893F82130022B08D07B6804229A6306
:1038F8007B68002283F82020012320E07B681B6876
:103908001A687B681B6822F00E021A607B681B68C5
:103918001A687B681B6822F001021A607B681A6CBF
:103928007B68DB6B012101FA02F25A607B68012295
:1039380083F821207B68002283F82020FB7B18462F
:103948001437BD4680BC704780B584B000AF78603E
:103958000023FB737B6893F82130022B05D07B682A
:1039680004229A630123FB73D6E07B681B681A68FC
:103978007B681B6822F00E021A607B681B681A6855
:103988007B681B6822F001021A607B681B681A4674
:10399800644B9A4258D97B681B68634A93424FD05C
:1039A8007B681B68614A934248D07B681B68604A01
:1039B800934240D07B681B685E4A934238D07B684C
:1039C8001B685D4A934230D07B681B685B4A934210
:1039D80028D07B681B68534A934220D07B681B68B9
:1039E800574A934219D07B681B68564A934212D0B3
:1039F8007B681B68544A93420AD07B681B68534A09
:103A0800934202D14FF480531BE04FF4803318E007
:103A18004FF4807315E0102313E0012311E04FF0F9
:103A280080730EE04FF480130BE04FF4803308E00E
:103A38004FF4805305E04FF4807302E0102300E058
:103A48000123434A536057E07B681B68364A934218
:103A58004FD07B681B68354A934248D07B681B6807
:103A6800334A934240D07B681B68324A934238D02D
:103A78007B681B68304A934230D07B681B682F4AAA
:103A8800934228D07B681B68264A934220D07B68E3
:103A98001B682B4A934219D07B681B68294A9342BA
:103AA80012D07B681B68284A93420AD07B681B683F
:103AB800264A934202D14FF480531BE04FF48033DF
:103AC80018E04FF4807315E0102313E0012311E090
:103AD8004FF080730EE04FF480130BE04FF4803307
:103AE80008E04FF4805305E04FF4807302E01023A0
:103AF80000E00123174A53607B68012283F82120E4
:103B08007B68002283F820207B685B6B002B03D046
:103B18007B685B6B78689847FB7B18461037BD4617
:103B280080BD00BF80000240080002401C00024027
:103B38003000024044000240580002406C0002403D
:103B4800080402401C0402403004024044040240BD
:103B5800000402400000024080B584B000AF7860E5
:103B68007B68DB6B1B68FB607B681B681B68BB6042
:103B78007B681B6C04229A40FB681340002B00F002
:103B8800F180BB6803F00403002B00F0EB807B6836
:103B98001B681B6803F02003002B07D17B681B6898
:103BA8001A687B681B6822F004021A607B681B682D
:103BB8001A465F4B9A4258D97B681B685D4A934204
:103BC8004FD07B681B685C4A934248D07B681B686F
:103BD8005A4A934240D07B681B68594A934238D06E
:103BE8007B681B68574A934230D07B681B68564AEB
:103BF800934228D07B681B684D4A934220D07B684B
:103C08001B68524A934219D07B681B68504A9342FA
:103C180012D07B681B684F4A93420AD07B681B68A6
:103C28004D4A934202D14FF480431BE04FF4802366
:103C380018E04FF4806315E0402313E0042311E0FB
:103C48004FF080630EE04FF480030BE04FF48023C5
:103C580008E04FF4804305E04FF4806302E040231E
:103C680000E004233D4A536057E07B681B68314AF3
:103C780093424FD07B681B682F4A934248D07B6899
:103C88001B682E4A934240D07B681B682C4A93429B
:103C980038D07B681B682B4A934230D07B681B68FE
:103CA800294A934228D07B681B68214A934220D036
:103CB8007B681B68254A934219D07B681B68244A95
:103CC800934212D07B681B68224A93420AD07B68D1
:103CD8001B68214A934202D14FF480431BE04FF402
:103CE800802318E04FF4806315E0402313E0042399
:103CF80011E04FF080630EE04FF480030BE04FF4C7
:103D0800802308E04FF4804305E04FF4806302E02D
:103D1800402300E00423124A53607B68DB6A002BCF
:103D280000F036817B68DB6A7868984730E100BF2D
:103D380080000240080002401C000240300002409F
:103D480044000240580002406C000240080402404F
:103D58001C040240300402404404024000040240B3
:103D6800000002407B681B6C02229A40FB681340EB
:103D7800002B00F0DD80BB6803F00203002B00F08D
:103D8800D7807B681B681B6803F02003002B0BD1CE
:103D98007B681B681A687B681B6822F00A021A6035
:103DA8007B68012283F821207B681B681A467B4BBD
:103DB8009A4258D97B681B68794A93424FD07B68EE
:103DC8001B68784A934248D07B681B68764A9342BE
:103DD80040D07B681B68754A934238D07B681B6863
:103DE800734A934230D07B681B68724A934228D04A
:103DF8007B681B68694A934220D07B681B686E4ABF
:103E0800934219D07B681B686C4A934212D07B6836
:103E18001B686B4A93420AD07B681B68694A9342C5
:103E280002D14FF400531BE04FF4003318E04FF475
:103E3800007315E0202313E0022311E04FF0007314
:103E48000EE04FF400130BE04FF4003308E04FF49A
:103E5800005305E04FF4007302E0202300E0022342
:103E6800594A536057E07B681B684D4A93424FD0CC
:103E78007B681B684B4A934248D07B681B684A4A58
:103E8800934240D07B681B68484A934238D07B688D
:103E98001B68474A934230D07B681B68454A934267
:103EA80028D07B681B683D4A934220D07B681B68FA
:103EB800414A934219D07B681B68404A934212D00A
:103EC8007B681B683E4A93420AD07B681B683D4A60
:103ED800934202D14FF400531BE04FF4003318E033
:103EE8004FF4007315E0202313E0022311E04FF094
:103EF80000730EE04FF400130BE04FF4003308E0BA
:103F08004FF4005305E04FF4007302E0202300E073
:103F180002232E4A53607B68002283F820207B68A6
:103F28009B6A002B34D07B689B6A786898472FE09F
:103F38007B681B6C08229A40FB681340002B28D032
:103F4800BB6803F00803002B23D07B681B681A6842
:103F58007B681B6822F00E021A607B681A6C7B680B
:103F6800DB6B012101FA02F25A607B6801229A6335
:103F78007B68012283F821207B68002283F82020B7
:103F88007B681B6B002B04D07B681B6B7868984799
:103F980000BF00BF1037BD4680BD00BF8000024093
:103FA800080002401C000240300002404400024069
:103FB800580002406C000240080402401C04024001
:103FC8003004024044040240000402400000024061
:103FD80080B48BB000AF7860396000237B62002327
:103FE8003B6279E101227B6A02FA03F3FB613B68D9
:103FF8001B68FA691340BB61BA69FB699A4240F0D1
:1040080068813B685B68964A93425ED0944A9342C3
:1040180075D8944A934258D0924A93426FD8924A9C
:10402800934252D0904A934269D8904A93424CD0D6
:104038008E4A934263D88E4A934246D08C4A934222
:104048005DD8122B2AD8122B59D801A252F823F086
:10405800D3400008AD400008BF40000801410008F7
:104068000741000807410008074100080741000808
:1040780007410008074100080741000807410008F8
:1040880007410008074100080741000807410008E8
:1040980007410008B5400008C9400008754A934226
:1040A80013D02CE03B68DB683B6229E03B68DB68A7
:1040B80004333B6224E03B68DB6808333B621FE063
:1040C8003B68DB680C333B621AE03B689B68002B5B
:1040D80002D104233B6213E03B689B68012B05D1A6
:1040E80008233B627B68FA691A6109E008233B628E
:1040F8007B68FA695A6103E000233B6200E000BF75
:10410800BB69FF2B01D87B6801E07B6804337B61C6
:10411800BB69FF2B02D87B6A9B0002E07B6A083BE5
:104128009B003B617B691A680F213B6901FA03F325
:10413800DB431A40396A3B6901FA03F31A437B6986
:104148001A603B685B6803F08053002B00F0C18065
:10415800494B9B69484A43F001039361464B9B696D
:1041680003F00103BB60BB68444A7B6A9B080233C7
:1041780052F82330FB607B6A03F003039B000F2295
:1041880002FA03F3DB43FA681340FB607B683C4A9E
:1041980093421FD07B683B4A934219D07B683A4AC6
:1041A800934213D07B68394A93420DD07B68384AD2
:1041B800934207D07B68374A934201D105230AE02E
:1041C800062308E0042306E0032304E0022302E0B8
:1041D800012300E000237A6A02F003029200934070
:1041E800FA681343FB6025497B6A9B080233FA6827
:1041F80041F823203B685B6803F48033002B06D02A
:10420800254B1A682449BB6913430B6006E0224B0F
:104218001A68BB69DB43204913400B603B685B6845
:1042280003F40033002B06D01B4B5A681A49BB69AC
:1042380013434B6006E0184B5A68BB69DB431649C9
:1042480013404B603B685B6803F48013002B25D058
:10425800114B9A681049BB6913438B6025E000BF76
:104268000000321000003110000022100000211060
:104278000000121000001110001002400000014060
:1042880000080140000C01400010014000140140EA
:1042980000180140001C014000040140154B9A68B9
:1042A800BB69DB43134913408B603B685B6803F4CD
:1042B8000013002B06D00F4BDA680E49BB69134375
:1042C800CB6006E00B4BDA68BB69DB430949134056
:1042D800CB607B6A01337B623B681A687B6A22FA8F
:1042E80003F3002B7FF47EAE00BF00BF2C37BD4622
:1042F80080BC70470004014080B485B000AF78608E
:104308000B467B807B689A687B881340002B02D021
:104318000123FB7301E00023FB73FB7B1846143772
:10432800BD4680BC704780B483B000AF78600B4650
:104338007B8013467B707B78002B03D07A887B6860
:104348001A6103E07B881A047B681A6100BF0C3786
:10435800BD4680BC704780B485B000AF78600B461E
:104368007B807B68DB68FB607A88FB6813401A04F3
:10437800FB68D9437B880B401A437B681A6100BFEE
:104388001437BD4680BC704780B586B000AF7860F2
:104398007B68002B01D1012372E27B681B6803F064
:1043A8000103002B00F08780924B5B6803F00C033D
:1043B800042B0CD08F4B5B6803F00C03082B12D135
:1043C8008C4B5B6803F48033B3F5803F0BD1894B8A
:1043D8001B6803F40033002B6CD07B685B68002BF0
:1043E80068D101234CE27B685B68B3F5803F06D156
:1043F800804B1B687F4A43F4803313602EE07B6850
:104408005B68002B0CD17B4B1B687A4A23F4803302
:104418001360784B1B68774A23F4802313601DE0F0
:104428007B685B68B3F5A02F0CD1724B1B68714A8F
:1044380043F4802313606F4B1B686E4A43F4803348
:1044480013600BE06B4B1B686A4A23F480331360DC
:10445800684B1B68674A23F4802313607B685B689A
:10446800002B13D0FEF748FA386108E0FEF744FA4B
:1044780002463B69D31A642B01D9032300E25D4B42
:104488001B6803F40033002BF0D014E0FEF734FA75
:10449800386108E0FEF730FA02463B69D31A642B0C
:1044A80001D90323ECE1534B1B6803F40033002BC1
:1044B800F0D100E000BF7B681B6803F00203002B0B
:1044C80063D04C4B5B6803F00C03002B0BD0494BBB
:1044D8005B6803F00C03082B1CD1464B5B6803F4A4
:1044E8008033002B16D1434B1B6803F00203002BCB
:1044F80005D07B681B69012B01D00123C0E13D4B2E
:104508001B6823F0F8027B685B69DB0039491343B9
:104518000B603AE07B681B69002B20D0364B0122E8
:104528001A60FEF7E9F9386108E0FEF7E5F9024696
:104538003B69D31A022B01D90323A1E12D4B1B6838
:1045480003F00203002BF0D02A4B1B6823F0F8027B
:104558007B685B69DB00274913430B6015E0264B3A
:1045680000221A60FEF7C8F9386108E0FEF7C4F9BE
:1045780002463B69D31A022B01D9032380E11D4B64
:104588001B6803F00203002BF0D17B681B6803F063
:104598000803002B3AD07B689B69002B19D0174B76
:1045A80001221A60FEF7A8F9386108E0FEF7A4F9BD
:1045B80002463B69D31A022B01D9032360E10D4B54
:1045C8005B6A03F00203002BF0D0012000F0D8FA58
:1045D8001CE00A4B00221A60FEF78EF938610FE0E2
:1045E800FEF78AF902463B69D31A022B08D903233E
:1045F80046E100BF001002400000424280044242EF
:10460800924B5B6A03F00203002BE9D17B681B68BD
:1046180003F00403002B00F0A6800023FB758B4BEE
:10462800DB6903F08053002B0DD1884BDB69874A87
:1046380043F08053D361854BDB6903F08053BB6043
:10464800BB680123FB75824B1B6803F48073002B46
:1046580018D17F4B1B687E4A43F480731360FEF7C2
:104668004BF9386108E0FEF747F902463B69D31A6F
:10467800642B01D9032303E1754B1B6803F4807392
:10468800002BF0D07B68DB68012B06D16F4B1B6ACF
:104698006E4A43F0010313622DE07B68DB68002B50
:1046A8000CD16A4B1B6A694A23F001031362674BFA
:1046B8001B6A664A23F0040313621CE07B68DB680C
:1046C800052B0CD1614B1B6A604A43F0040313624B
:1046D8005E4B1B6A5D4A43F0010313620BE05B4BC0
:1046E8001B6A5A4A23F001031362584B1B6A574A44
:1046F80023F0040313627B68DB68002B15D0FEF7F8
:10470800FBF838610AE0FEF7F7F802463B69D31A6E
:1047180041F28832934201D90323B1E04B4B1B6A23
:1047280003F00203002BEED014E0FEF7E5F8386141
:104738000AE0FEF7E1F802463B69D31A41F28832F3
:10474800934201D903239BE0404B1B6A03F0020309
:10475800002BEED1FB7D012B05D13C4BDB693B4A9D
:1047680023F08053D3617B68DB69002B00F08780DE
:10477800364B5B6803F00C03082B61D07B68DB6960
:10478800022B46D1334B00221A60FEF7B5F8386188
:1047980008E0FEF7B1F802463B69D31A022B01D9AB
:1047A80003236DE0294B1B6803F00073002BF0D145
:1047B8007B681B6AB3F5803F08D1244B5B6823F400
:1047C80000327B689B68214913434B601F4B5B6831
:1047D80023F474127B68196A7B685B6A0B431B4974
:1047E80013434B601B4B01221A60FEF785F83861B2
:1047F80008E0FEF781F802463B69D31A022B01D97B
:1048080003233DE0114B1B6803F00073002BF0D02D
:1048180035E0104B00221A60FEF76EF8386108E0A8
:10482800FEF76AF802463B69D31A022B01D9032323
:1048380026E0064B1B6803F00073002BF0D11EE046
:104848007B68DB69012B07D1012319E000100240C6
:1048580000700040600042420B4B5B68FB60FB68E5
:1048680003F480327B681B6A9A4206D1FB6803F422
:1048780070127B685B6A9A4201D0012300E0002332
:1048880018461837BD4680BD0010024080B584B078
:1048980000AF786039607B68002B01D10123D0E03C
:1048A8006A4B1B6803F007033A689A4210D9674BB2
:1048B8001B6823F0070265493B6813430B60634B91
:1048C8001B6803F007033A689A4201D00123B8E055
:1048D8007B681B6803F00203002B20D07B681B68F1
:1048E80003F00403002B05D0594B5B68584A43F486
:1048F800E06353607B681B6803F00803002B05D056
:10490800534B5B68524A43F460535360504B5B68A7
:1049180023F0F0027B689B684D4913434B607B682A
:104928001B6803F00103002B40D07B685B68012BF8
:1049380007D1474B1B6803F40033002B15D1012323
:104948007FE07B685B68022B07D1414B1B6803F053
:104958000073002B09D1012373E03D4B1B6803F062
:104968000203002B01D101236BE0394B5B6823F074
:1049780003027B685B68364913434B60FDF7BCFF55
:10498800F8600AE0FDF7B8FF0246FB68D31A41F267
:104998008832934201D9032353E02D4B5B6803F01F
:1049A8000C027B685B689B009A42EBD1274B1B6823
:1049B80003F007033A689A4210D2244B1B6823F08D
:1049C800070222493B6813430B60204B1B6803F026
:1049D80007033A689A4201D0012332E07B681B68DA
:1049E80003F00403002B08D0194B5B6823F4E06242
:1049F8007B68DB68164913434B607B681B6803F0D0
:104A08000803002B09D0124B5B6823F460527B68C3
:104A18001B69DB000E4913434B6000F021F8024686
:104A28000B4B5B681B0903F00F030A49CB5C22FAA6
:104A380003F3094A1360094B1B681846FDF71AFF70
:104A4800002318461037BD4680BD00BF0020024035
:104A580000100240C8670008000000200400002081
:104A680090B48AB000AF294B3C1D0FCB84E80F00EF
:104A780040F201233B800023FB610023BB6100233C
:104A88007B6200237B6100233B62214B5B68FB61F7
:104A9800FB6903F00C03042B02D0082B03D02BE096
:104AA8001C4B3B622BE0FB699B0C03F00F03283384
:104AB8003B4413F8243C7B61FB6903F48033002BEF
:104AC80012D0134B5B685B0C03F0010328333B44A3
:104AD80013F8283CBB617B690E4A03FB02F2BB69F1
:104AE800B2FBF3F37B6204E07B690B4A02FB03F33E
:104AF8007B627B6A3B6202E0064B3B6200BF3B6A1B
:104B080018462837BD4690BC704700BFB4670008F8
:104B18000010024000127A0000093D0080B400AF86
:104B2800024B1B681846BD4680BC70470000002039
:104B380080B500AFFFF7F2FF0246054B5B681B0A22
:104B480003F007030349CB5C22FA03F3184680BD40
:104B580000100240D867000880B500AFFFF7DEFFFD
:104B68000246054B5B68DB0A03F007030349CB5C8D
:104B780022FA03F3184680BD00100240D8670008E7
:104B880080B485B000AF78600A4B1B680A4AA2FB64
:104B980003235B0A7A6802FB03F3FB6000BFFB6830
:104BA8005A1EFA60002BF9D100BF00BF1437BD466A
:104BB80080BC704700000020D34D621080B582B0E1
:104BC80000AF78607B68002B01D101233FE07B6850
:104BD80093F83D30DBB2002B06D17B68002283F8C6
:104BE8003C207868FDF78CFD7B68242283F83D2003
:104BF8007B681B68DA687B681B6822F40052DA60FD
:104C0800786800F085FC7B681B681A697B681B68FC
:104C180022F490421A617B681B685A697B681B689A
:104C280022F02A025A617B681B68DA687B681B6875
:104C380042F40052DA607B6800221A647B68202202
:104C480083F83D207B68202283F83E200023184605
:104C58000837BD4680BD80B58AB002AFF860B9603C
:104C68003B601346FB8000237B61FB6893F83D3073
:104C7800DBB2202B7CD1BB68002B02D0FB88002B39
:104C880001D1012375E0FB6893F83C30012B01D179
:104C980002236EE0FB68012283F83C20FB680022B7
:104CA8001A64FB68212283F83D20FDF725FE786110
:104CB800FB68FA889A84FB68FA88DA84FB689B6840
:104CC800B3F5805F08D1FB681B69002B04D1002372
:104CD800FB61BB68BB6103E0BB68FB610023BB6190
:104CE800FB68002283F83C202AE03B6800937B693C
:104CF80000228021F86800F038FA0346002B01D022
:104D0800032336E0FB69002B0BD1BB691B881A46CD
:104D1800FB681B68C2F308025A60BB690233BB61B7
:104D280007E0FB691A78FB681B685A60FB69013366
:104D3800FB61FB68DB8C9BB2013B9AB2FB68DA84AF
:104D4800FB68DB8C9BB2002BCFD13B6800937B695F
:104D580000224021F86800F008FA0346002B01D031
:104D6800032306E0FB68202283F83D20002300E0AF
:104D7800022318462037BD4680BD80B584B000AFF9
:104D8800F860B9601346FB80FB6893F83E30DBB2ED
:104D9800202B1DD1BB68002B02D0FB88002B01D132
:104DA800012316E0FB6893F83C30012B01D1022364
:104DB8000FE0FB68012283F83C20FB6800221A639D
:104DC800FB881A46B968F86800F019FA034600E04B
:104DD800022318461037BD4680BD000080B58AB052
:104DE80000AF78607B681B681B687B627B681B6808
:104DF800DB683B627B681B685B69FB610023BB6106
:104E080000237B617B6A03F00F03BB61BB69002B46
:104E18000DD17B6A03F02003002B08D03B6A03F016
:104E28002003002B03D0786800F0C9FA7BE1BB6946
:104E3800002B00F0B180FB6903F00103002B05D1C2
:104E48003B6A03F49073002B00F0A6807B6A03F0A2
:104E58000103002B0AD03B6A03F48073002B05D0B2
:104E68007B681B6C43F001027B681A647B6A03F061
:104E78000403002B0AD0FB6903F00103002B05D0C3
:104E88007B681B6C43F002027B681A647B6A03F040
:104E98000203002B0AD0FB6903F00103002B05D0A5
:104EA8007B681B6C43F004027B681A647B6A03F01E
:104EB8000803002B0FD03B6A03F02003002B04D11A
:104EC800FB6903F00103002B05D07B681B6C43F0E2
:104ED80008027B681A647B681B6C002B00F01E813B
:104EE8007B6A03F02003002B07D03B6A03F0200302
:104EF800002B02D0786800F062FA7B681B685B6957
:104F080003F04003002B14BF01230023DBB27B61B5
:104F18007B681B6C03F00803002B02D17B69002B14
:104F280031D0786800F0A4F97B681B685B6903F0EE
:104F38004003002B23D07B681B685A697B681B6879
:104F480022F040025A617B689B6B002B13D07B6870
:104F58009B6B764A5A637B689B6B1846FEF7F4FC9A
:104F68000346002B16D07B689B6B5B6B7A68926B51
:104F7800104698470EE0786800F0E3F80AE0786891
:104F880000F0DFF806E0786800F0DBF87B680022C4
:104F98001A64C3E000BFC1E07B681B6B012B40F0C3
:104FA800A1807B6A03F01003002B00F09B803B6A12
:104FB80003F01003002B00F095800023FB607B6852
:104FC8001B681B68FB607B681B685B68FB60FB6891
:104FD8007B681B685B6903F04003002B4ED07B683D
:104FE8009B6B1B685B683B823B8A002B00F09880B8
:104FF8007B689B8D3A8A9A4280F092807B683A8AD5
:10500800DA857B689B6B9B69202B2BD07B681B68A0
:10501800DA687B681B6822F48072DA607B681B6838
:105028005A697B681B6822F001025A617B681B6819
:105038005A697B681B6822F040025A617B6820220B
:1050480083F83E207B6800221A637B681B68DA6855
:105058007B681B6822F01002DA607B689B6B18463D
:10506800FEF738FC7B689A8D7B68DB8D9BB2D31A80
:105078009BB21946786800F06DF851E07B689A8D0C
:105088007B68DB8D9BB2D31A7B827B68DB8D9BB2FE
:10509800002B47D07B8A002B44D07B681B68DA68DA
:1050A8007B681B6822F49072DA607B681B685A6917
:1050B8007B681B6822F001025A617B68202283F812
:1050C8003E207B6800221A637B681B68DA687B686D
:1050D8001B6822F01002DA607B8A1946786800F0B3
:1050E80039F81FE07B6A03F08003002B08D03B6A85
:1050F80003F08003002B03D0786800F0F9F812E081
:105108007B6A03F04003002B0DD03B6A03F0400399
:10511800002B08D0786800F03AF904E000BF02E0FC
:1051280000BF00E000BF2837BD4680BDD15200084F
:1051380080B483B000AF786000BF0C37BD4680BC38
:10514800704780B483B000AF786000BF0C37BD46AD
:1051580080BC704780B483B000AF78600B467B801A
:1051680000BF0C37BD4680BC704780B584B000AF27
:10517800F860B9603B601346FB712CE0BB69B3F182
:10518800FF3F28D0BB69002B07D0FDF7B5FB0246CF
:105198003B68D31ABA699A421DD2FB681B68DA6861
:1051A800FB681B6822F4D072DA60FB681B685A69D6
:1051B800FB681B6822F001025A61FB68202283F811
:1051C8003D20FB68202283F83E20FB68002283F8FC
:1051D8003C2003230FE0FB681B681A68BB68134078
:1051E800BA689A420CBF01230023DBB21A46FB7946
:1051F8009A42C3D0002318461037BD4680BD80B4FC
:1052080085B000AFF860B9601346FB80FB68BA68E8
:105218009A62FB68FA889A85FB68FA88DA85FB68DF
:1052280000221A64FB68222283F83E20FB680022D1
:1052380083F83C20FB681B68DA68FB681B6842F44B
:105248008072DA60FB681B685A69FB681B6842F069
:1052580001025A61FB681B68DA68FB681B6842F048
:105268002002DA60002318461437BD4680BC704718
:1052780080B483B000AF78607B681B68DA687B68AD
:105288001B6822F49072DA607B681B685A697B6835
:105298001B6822F001025A617B681B6B012B07D146
:1052A8007B681B68DA687B681B6822F01002DA608A
:1052B8007B68202283F83E207B6800221A6300BFA7
:1052C8000C37BD4680BC704780B584B000AF7860AD
:1052D8007B685B6AFB60FB680022DA85FB6800225A
:1052E800DA84F868FFF72DFF00BF1037BD4680BD90
:1052F80080B485B000AF78607B6893F83D30DBB24E
:10530800212B3ED17B689B68B3F5805F14D17B6805
:105318001B69002B10D17B681B6AFB60FB681B882C
:105328001A467B681B68C2F308025A607B681B6ACE
:105338009A1C7B681A6208E07B681B6A591C7A68A9
:1053480011621A787B681B685A607B68DB8C9BB299
:10535800013B9BB27A681946D184002B0FD17B6838
:105368001B68DA687B681B6822F08002DA607B6859
:105378001B68DA687B681B6842F04002DA60002329
:1053880000E0022318461437BD4680BC704780B53C
:1053980082B000AF78607B681B68DA687B681B683E
:1053A80022F04002DA607B68202283F83D2078688A
:1053B800FFF7BEFE002318460837BD4680BD80B5FE
:1053C80086B000AF78607B6893F83E30DBB2222B62
:1053D80040F099807B689B68B3F5805F17D17B6844
:1053E8001B69002B13D100237B617B689B6A3B619F
:1053F8007B681B685B689BB2C3F308039AB23B697E
:105408001A807B689B6A9A1C7B689A6226E07B6894
:105418009B6A7B6100233B617B689B68B3F5805F77
:1054280007D07B689B68002B0AD17B681B69002B1F
:1054380006D17B681B685B68DAB27B691A7008E082
:105448007B681B685B68DBB203F07F03DAB27B69B9
:105458001A707B689B6A5A1C7B689A627B68DB8D32
:105468009BB2013B9BB27A681946D185002B48D183
:105478007B681B68DA687B681B6822F02002DA60A8
:105488007B681B68DA687B681B6822F48072DA60C4
:105498007B681B685A697B681B6822F001025A61A5
:1054A8007B68202283F83E207B681B6B012B23D16D
:1054B8007B6800221A637B681B68DA687B681B6854
:1054C80022F01002DA607B681B681B6803F0100387
:1054D800102B0AD10023FB607B681B681B68FB60EC
:1054E8007B681B685B68FB60FB687B689B8D194663
:1054F8007868FFF72FFE02E07868FCF7E3FD0023E9
:1055080002E0002300E0022318461837BD4680BD9C
:1055180080B584B000AF78607B681B681B6923F492
:1055280040517B68DA687B681B680A431A617B68AC
:105538009A687B681B691A437B685B691343BB6085
:105548007B681B68DB6823F4B05323F00C037A688C
:105558001268B9680B43D3607B681B685B6923F4E6
:1055680040717B689A697B681B680A435A617B684B
:105578001B682C4A934203D1FFF7EEFAF86002E069
:10558800FFF7D6FAF860FA6813469B0013449A00AE
:105598001A447B685B689B00B2FBF3F3224AA2FBC8
:1055A80003235B091901FA6813469B0013449A0008
:1055B8001A447B685B689B00B2FBF3F21A4BA3FBAF
:1055C80002035B09642000FB03F3D31A1B01323387
:1055D800154AA2FB03235B0903F0F0031944FA6898
:1055E80013469B0013449A001A447B685B689B002F
:1055F800B2FBF3F20C4BA3FB02035B09642000FB34
:1056080003F3D31A1B013233074AA2FB03235B09B6
:1056180003F00F027B681B680A449A6000BF1037CA
:10562800BD4680BD003801401F85EB51014B18680D
:10563800704700BF0C00002070B500260C4D0D4CC3
:10564800641BA410A64209D101F02CF800260A4DCB
:105658000A4C641BA410A64205D170BD55F8043B42
:1056680098470136EEE755F8043B98470136F2E7CC
:105678007868000878680008786800087C6800087E
:1056880003460244934200D1704703F8011BF9E72F
:105698000FB40A4B13B51C6824B1A36913B920468B
:1056A80000F05AFA05AB2046049AA168019300F06D
:1056B8005DFC02B0BDE8104004B070470C0000204B
:1056C80070B50E46054618B183690BB900F044FA67
:1056D800AB69AC6813B9284600F03EFA2C4B9C42E3
:1056E80020D16C68636EDB0705D4A389980502D4C2
:1056F800A06D00F0CFFAA38919071DD52369DBB186
:10570800013EA36816F8011F013BA36039BB002BBB
:1057180038DA22460A21284600F048F8013011D02C
:105728000A2511E01B4B9C4201D1AC68DAE71A4B01
:105738009C4208BFEC68D5E72146284600F088F867
:105748000028DDD04FF0FF35636EDA0705D4A38952
:105758009B0502D4A06D00F09EFA284670BD002B70
:1057680004DAA2699A4206DC0A2904D023685A1C82
:1057780022601970C5E72246284600F017F8013064
:10578800BFD1DFE70A2523685A1C22601D70DBE7BA
:105798000468000824680008E4670008024B014612
:1057A8001868FFF78DBF00BF0C000020F8B50E4643
:1057B8001446054618B183690BB900F0CDF9214BA1
:1057C8009C422BD16C68A369A360A3891A072FD5C3
:1057D80023696BB323692068F6B2C01A6369374638
:1057E800834204DC2146284600F022F930BBA36836
:1057F8000130013BA36023685A1C22601E70636954
:10580800834204D0A389DB0706D50A2E04D121469A
:10581800284600F00DF988B93846F8BD0A4B9C4275
:1058280001D1AC68CFE7094B9C4208BFEC68CAE7D6
:105838002146284600F00CF80028CBD04FF0FF375F
:10584800EAE700BF0468000824680008E467000865
:10585800324B70B51D6806460C4625B1AB6913B9C5
:10586800284600F079F92E4B9C420FD16C68A38929
:10587800B4F90C2019072CD4DD0611D409233360A0
:1058880042F040034FF0FF30A3813EE0254B9C429D
:1058980001D1AC68EBE7244B9C4208BFEC68E6E713
:1058A800580712D5616B41B104F14403994202D003
:1058B800304600F057FA00236363A38923F02403DA
:1058C800A3810023636023692360A38943F008034D
:1058D800A38123694BB9A38903F42073B3F5007F2F
:1058E80003D02146304600F0FDF9A089B4F90C2018
:1058F80010F001030AD00023A36063695B42A3612F
:10590800236943B910F08000BAD170BD810758BF30
:105918006369A360F4E70020F7E700BF0C000020EC
:105928000468000824680008E46700088A89F8B554
:10593800054610070C4657D44B68002B04DC0B6C4B
:10594800002B01DC0020F8BDE66A002EFAD0002307
:1059580012F480522F682B6032D0606DA3895A07E9
:1059680005D56368C01A636B0BB1236CC01A00239A
:105978000246E66A2846216AB047431CA38906D135
:1059880029681D292CD8294ACA40D60728D50022BB
:1059980062602269D904226004D5421C01D12B68B7
:1059A80003B96065616B2F600029CBD004F1440313
:1059B800994202D0284600F0D5F900206063C2E77A
:1059C800216A01232846B047411CC7D12B68002B08
:1059D800C4D01D2B01D0162B01D12F60B2E7A389AB
:1059E80043F04003A381AEE70F69002FAAD09307C5
:1059F80018BF00230E6808BF4B69F61B0F608B6049
:105A0800002E9FDD33463A462846216AD4F828C03E
:105A1800E047002806DCA3894FF0FF3043F040033D
:105A2800A38190E70744361AEAE700BF0100402047
:105A380038B50B6905460C4613B90025284638BD0C
:105A480018B183690BB900F087F8144B9C421BD13D
:105A58006C68B4F90C30002BEFD0626ED00704D418
:105A6800990502D4A06D00F015F928462146FFF7E4
:105A78005DFF636E0546DA07E0D4A3899B05DDD494
:105A8800A06D00F008F9D9E7054B9C4201D1AC683C
:105A9800DFE7044B9C4208BFEC68DAE704680008BB
:105AA80024680008E4670008002310B50446C0E92C
:105AB8000033C0E90433836081814366C281836116
:105AC800194608225C30FFF7DBFD054B2462636250
